{
	"contracts/GasGolf.sol": {
		"gasGolf": {
			"abi": [
				{
					"inputs": [
						{
							"internalType": "uint256[]",
							"name": "nums",
							"type": "uint256[]"
						}
					],
					"name": "addIfIsEvenAndLessThan50",
					"outputs": [],
					"stateMutability": "nonpayable",
					"type": "function"
				},
				{
					"inputs": [
						{
							"internalType": "uint256[]",
							"name": "nums",
							"type": "uint256[]"
						}
					],
					"name": "addIfIsEvenAndLessThan50Optmized",
					"outputs": [],
					"stateMutability": "nonpayable",
					"type": "function"
				}
			],
			"devdoc": {
				"kind": "dev",
				"methods": {},
				"version": 1
			},
			"evm": {
				"assembly": "    /* \"contracts/GasGolf.sol\":64:1817  contract gasGolf {... */\n  mstore(0x40, 0x80)\n  callvalue\n  dup1\n  iszero\n  tag_1\n  jumpi\n  0x00\n  dup1\n  revert\ntag_1:\n  pop\n  dataSize(sub_0)\n  dup1\n  dataOffset(sub_0)\n  0x00\n  codecopy\n  0x00\n  return\nstop\n\nsub_0: assembly {\n        /* \"contracts/GasGolf.sol\":64:1817  contract gasGolf {... */\n      mstore(0x40, 0x80)\n      callvalue\n      dup1\n      iszero\n      tag_1\n      jumpi\n      0x00\n      dup1\n      revert\n    tag_1:\n      pop\n      jumpi(tag_2, lt(calldatasize, 0x04))\n      shr(0xe0, calldataload(0x00))\n      dup1\n      0x244351f2\n      eq\n      tag_3\n      jumpi\n      dup1\n      0x7caff4cf\n      eq\n      tag_4\n      jumpi\n    tag_2:\n      0x00\n      dup1\n      revert\n        /* \"contracts/GasGolf.sol\":946:1814  function addIfIsEvenAndLessThan50Optmized(uint256[] calldata nums) external {... */\n    tag_3:\n      tag_5\n      0x04\n      dup1\n      calldatasize\n      sub\n      dup2\n      add\n      swap1\n      tag_6\n      swap2\n      swap1\n      tag_7\n      jump\t// in\n    tag_6:\n      tag_8\n      jump\t// in\n    tag_5:\n      stop\n        /* \"contracts/GasGolf.sol\":237:777  function addIfIsEvenAndLessThan50 (uint256[] memory nums) external {... */\n    tag_4:\n      tag_9\n      0x04\n      dup1\n      calldatasize\n      sub\n      dup2\n      add\n      swap1\n      tag_10\n      swap2\n      swap1\n      tag_11\n      jump\t// in\n    tag_10:\n      tag_12\n      jump\t// in\n    tag_9:\n      stop\n        /* \"contracts/GasGolf.sol\":946:1814  function addIfIsEvenAndLessThan50Optmized(uint256[] calldata nums) external {... */\n    tag_8:\n        /* \"contracts/GasGolf.sol\":1033:1047  uint256 _total */\n      0x00\n        /* \"contracts/GasGolf.sol\":1050:1055  total */\n      dup1\n      sload\n        /* \"contracts/GasGolf.sol\":1033:1055  uint256 _total = total */\n      swap1\n      pop\n        /* \"contracts/GasGolf.sol\":1066:1077  uint256 len */\n      0x00\n        /* \"contracts/GasGolf.sol\":1080:1084  nums */\n      dup4\n      dup4\n        /* \"contracts/GasGolf.sol\":1080:1091  nums.length */\n      swap1\n      pop\n        /* \"contracts/GasGolf.sol\":1066:1091  uint256 len = nums.length */\n      swap1\n      pop\n        /* \"contracts/GasGolf.sol\":1152:1161  uint256 i */\n      0x00\n        /* \"contracts/GasGolf.sol\":1147:1729  for (uint256 i = 0; i < len; i += 1) {... */\n    tag_14:\n        /* \"contracts/GasGolf.sol\":1171:1174  len */\n      dup2\n        /* \"contracts/GasGolf.sol\":1167:1168  i */\n      dup2\n        /* \"contracts/GasGolf.sol\":1167:1174  i < len */\n      lt\n        /* \"contracts/GasGolf.sol\":1147:1729  for (uint256 i = 0; i < len; i += 1) {... */\n      iszero\n      tag_15\n      jumpi\n        /* \"contracts/GasGolf.sol\":1199:1210  uint256 num */\n      0x00\n        /* \"contracts/GasGolf.sol\":1213:1217  nums */\n      dup6\n      dup6\n        /* \"contracts/GasGolf.sol\":1218:1219  1 */\n      0x01\n        /* \"contracts/GasGolf.sol\":1213:1220  nums[1] */\n      dup2\n      dup2\n      lt\n      tag_17\n      jumpi\n      tag_18\n      tag_19\n      jump\t// in\n    tag_18:\n    tag_17:\n      swap1\n      pop\n      0x20\n      mul\n      add\n      calldataload\n        /* \"contracts/GasGolf.sol\":1199:1220  uint256 num = nums[1] */\n      swap1\n      pop\n        /* \"contracts/GasGolf.sol\":1471:1472  0 */\n      0x00\n        /* \"contracts/GasGolf.sol\":1466:1467  2 */\n      0x02\n        /* \"contracts/GasGolf.sol\":1460:1463  num */\n      dup3\n        /* \"contracts/GasGolf.sol\":1460:1467  num % 2 */\n      tag_20\n      swap2\n      swap1\n      tag_21\n      jump\t// in\n    tag_20:\n        /* \"contracts/GasGolf.sol\":1460:1472  num % 2 == 0 */\n      eq\n        /* \"contracts/GasGolf.sol\":1460:1484  num % 2 == 0 && num < 50 */\n      dup1\n      iszero\n      tag_22\n      jumpi\n      pop\n        /* \"contracts/GasGolf.sol\":1482:1484  50 */\n      0x32\n        /* \"contracts/GasGolf.sol\":1476:1479  num */\n      dup2\n        /* \"contracts/GasGolf.sol\":1476:1484  num < 50 */\n      lt\n        /* \"contracts/GasGolf.sol\":1460:1484  num % 2 == 0 && num < 50 */\n    tag_22:\n        /* \"contracts/GasGolf.sol\":1456:1538  if (num % 2 == 0 && num < 50) { ... */\n      iszero\n      tag_23\n      jumpi\n        /* \"contracts/GasGolf.sol\":1515:1519  nums */\n      dup6\n      dup6\n        /* \"contracts/GasGolf.sol\":1520:1521  i */\n      dup4\n        /* \"contracts/GasGolf.sol\":1515:1522  nums[i] */\n      dup2\n      dup2\n      lt\n      tag_24\n      jumpi\n      tag_25\n      tag_19\n      jump\t// in\n    tag_25:\n    tag_24:\n      swap1\n      pop\n      0x20\n      mul\n      add\n      calldataload\n        /* \"contracts/GasGolf.sol\":1506:1511  total */\n      0x00\n      dup1\n        /* \"contracts/GasGolf.sol\":1506:1522  total += nums[i] */\n      dup3\n      dup3\n      sload\n      tag_26\n      swap2\n      swap1\n      tag_27\n      jump\t// in\n    tag_26:\n      swap3\n      pop\n      pop\n      dup2\n      swap1\n      sstore\n      pop\n        /* \"contracts/GasGolf.sol\":1456:1538  if (num % 2 == 0 && num < 50) { ... */\n    tag_23:\n        /* \"contracts/GasGolf.sol\":1699:1702  ++i */\n      dup2\n      0x01\n      add\n      swap2\n      pop\n        /* \"contracts/GasGolf.sol\":1184:1729  {... */\n      pop\n        /* \"contracts/GasGolf.sol\":1181:1182  1 */\n      0x01\n        /* \"contracts/GasGolf.sol\":1176:1182  i += 1 */\n      dup2\n      tag_28\n      swap2\n      swap1\n      tag_27\n      jump\t// in\n    tag_28:\n      swap1\n      pop\n        /* \"contracts/GasGolf.sol\":1147:1729  for (uint256 i = 0; i < len; i += 1) {... */\n      jump(tag_14)\n    tag_15:\n      pop\n        /* \"contracts/GasGolf.sol\":1800:1806  _total */\n      dup2\n        /* \"contracts/GasGolf.sol\":1792:1797  total */\n      0x00\n        /* \"contracts/GasGolf.sol\":1792:1806  total = _total */\n      dup2\n      swap1\n      sstore\n      pop\n        /* \"contracts/GasGolf.sol\":1022:1814  {... */\n      pop\n      pop\n        /* \"contracts/GasGolf.sol\":946:1814  function addIfIsEvenAndLessThan50Optmized(uint256[] calldata nums) external {... */\n      pop\n      pop\n      jump\t// out\n        /* \"contracts/GasGolf.sol\":237:777  function addIfIsEvenAndLessThan50 (uint256[] memory nums) external {... */\n    tag_12:\n        /* \"contracts/GasGolf.sol\":320:329  uint256 i */\n      0x00\n        /* \"contracts/GasGolf.sol\":315:770  for (uint256 i = 0; i < nums.length; i += 1) {... */\n    tag_30:\n        /* \"contracts/GasGolf.sol\":339:343  nums */\n      dup2\n        /* \"contracts/GasGolf.sol\":339:350  nums.length */\n      mload\n        /* \"contracts/GasGolf.sol\":335:336  i */\n      dup2\n        /* \"contracts/GasGolf.sol\":335:350  i < nums.length */\n      lt\n        /* \"contracts/GasGolf.sol\":315:770  for (uint256 i = 0; i < nums.length; i += 1) {... */\n      iszero\n      tag_31\n      jumpi\n        /* \"contracts/GasGolf.sol\":406:416  bool eEven */\n      0x00\n        /* \"contracts/GasGolf.sol\":434:435  0 */\n      dup1\n        /* \"contracts/GasGolf.sol\":429:430  2 */\n      0x02\n        /* \"contracts/GasGolf.sol\":419:423  nums */\n      dup5\n        /* \"contracts/GasGolf.sol\":424:425  i */\n      dup5\n        /* \"contracts/GasGolf.sol\":419:426  nums[i] */\n      dup2\n      mload\n      dup2\n      lt\n      tag_33\n      jumpi\n      tag_34\n      tag_19\n      jump\t// in\n    tag_34:\n    tag_33:\n      0x20\n      mul\n      0x20\n      add\n      add\n      mload\n        /* \"contracts/GasGolf.sol\":419:430  nums[i] % 2 */\n      tag_35\n      swap2\n      swap1\n      tag_21\n      jump\t// in\n    tag_35:\n        /* \"contracts/GasGolf.sol\":419:435  nums[i] % 2 == 0 */\n      eq\n        /* \"contracts/GasGolf.sol\":406:435  bool eEven = nums[i] % 2 == 0 */\n      swap1\n      pop\n        /* \"contracts/GasGolf.sol\":491:507  bool eLessThan50 */\n      0x00\n        /* \"contracts/GasGolf.sol\":520:522  50 */\n      0x32\n        /* \"contracts/GasGolf.sol\":510:514  nums */\n      dup5\n        /* \"contracts/GasGolf.sol\":515:516  i */\n      dup5\n        /* \"contracts/GasGolf.sol\":510:517  nums[i] */\n      dup2\n      mload\n      dup2\n      lt\n      tag_36\n      jumpi\n      tag_37\n      tag_19\n      jump\t// in\n    tag_37:\n    tag_36:\n      0x20\n      mul\n      0x20\n      add\n      add\n      mload\n        /* \"contracts/GasGolf.sol\":510:522  nums[i] < 50 */\n      lt\n        /* \"contracts/GasGolf.sol\":491:522  bool eLessThan50 = nums[i] < 50 */\n      swap1\n      pop\n        /* \"contracts/GasGolf.sol\":569:574  eEven */\n      dup2\n        /* \"contracts/GasGolf.sol\":569:589  eEven && eLessThan50 */\n      dup1\n      iszero\n      tag_38\n      jumpi\n      pop\n        /* \"contracts/GasGolf.sol\":578:589  eLessThan50 */\n      dup1\n        /* \"contracts/GasGolf.sol\":569:589  eEven && eLessThan50 */\n    tag_38:\n        /* \"contracts/GasGolf.sol\":565:759  if (eEven && eLessThan50) {... */\n      iszero\n      tag_39\n      jumpi\n        /* \"contracts/GasGolf.sol\":736:740  nums */\n      dup4\n        /* \"contracts/GasGolf.sol\":741:742  1 */\n      0x01\n        /* \"contracts/GasGolf.sol\":736:743  nums[1] */\n      dup2\n      mload\n      dup2\n      lt\n      tag_40\n      jumpi\n      tag_41\n      tag_19\n      jump\t// in\n    tag_41:\n    tag_40:\n      0x20\n      mul\n      0x20\n      add\n      add\n      mload\n        /* \"contracts/GasGolf.sol\":727:732  total */\n      0x00\n      dup1\n        /* \"contracts/GasGolf.sol\":727:743  total += nums[1] */\n      dup3\n      dup3\n      sload\n      tag_42\n      swap2\n      swap1\n      tag_27\n      jump\t// in\n    tag_42:\n      swap3\n      pop\n      pop\n      dup2\n      swap1\n      sstore\n      pop\n        /* \"contracts/GasGolf.sol\":565:759  if (eEven && eLessThan50) {... */\n    tag_39:\n        /* \"contracts/GasGolf.sol\":360:770  {... */\n      pop\n      pop\n        /* \"contracts/GasGolf.sol\":357:358  1 */\n      0x01\n        /* \"contracts/GasGolf.sol\":352:358  i += 1 */\n      dup2\n      tag_43\n      swap2\n      swap1\n      tag_27\n      jump\t// in\n    tag_43:\n      swap1\n      pop\n        /* \"contracts/GasGolf.sol\":315:770  for (uint256 i = 0; i < nums.length; i += 1) {... */\n      jump(tag_30)\n    tag_31:\n      pop\n        /* \"contracts/GasGolf.sol\":237:777  function addIfIsEvenAndLessThan50 (uint256[] memory nums) external {... */\n      pop\n      jump\t// out\n        /* \"#utility.yul\":7:82   */\n    tag_44:\n        /* \"#utility.yul\":40:46   */\n      0x00\n        /* \"#utility.yul\":73:75   */\n      0x40\n        /* \"#utility.yul\":67:76   */\n      mload\n        /* \"#utility.yul\":57:76   */\n      swap1\n      pop\n        /* \"#utility.yul\":7:82   */\n      swap1\n      jump\t// out\n        /* \"#utility.yul\":88:205   */\n    tag_45:\n        /* \"#utility.yul\":197:198   */\n      0x00\n        /* \"#utility.yul\":194:195   */\n      dup1\n        /* \"#utility.yul\":187:199   */\n      revert\n        /* \"#utility.yul\":211:328   */\n    tag_46:\n        /* \"#utility.yul\":320:321   */\n      0x00\n        /* \"#utility.yul\":317:318   */\n      dup1\n        /* \"#utility.yul\":310:322   */\n      revert\n        /* \"#utility.yul\":334:451   */\n    tag_47:\n        /* \"#utility.yul\":443:444   */\n      0x00\n        /* \"#utility.yul\":440:441   */\n      dup1\n        /* \"#utility.yul\":433:445   */\n      revert\n        /* \"#utility.yul\":457:574   */\n    tag_48:\n        /* \"#utility.yul\":566:567   */\n      0x00\n        /* \"#utility.yul\":563:564   */\n      dup1\n        /* \"#utility.yul\":556:568   */\n      revert\n        /* \"#utility.yul\":580:697   */\n    tag_49:\n        /* \"#utility.yul\":689:690   */\n      0x00\n        /* \"#utility.yul\":686:687   */\n      dup1\n        /* \"#utility.yul\":679:691   */\n      revert\n        /* \"#utility.yul\":720:1288   */\n    tag_50:\n        /* \"#utility.yul\":793:801   */\n      0x00\n        /* \"#utility.yul\":803:809   */\n      dup1\n        /* \"#utility.yul\":853:856   */\n      dup4\n        /* \"#utility.yul\":846:850   */\n      0x1f\n        /* \"#utility.yul\":838:844   */\n      dup5\n        /* \"#utility.yul\":834:851   */\n      add\n        /* \"#utility.yul\":830:857   */\n      slt\n        /* \"#utility.yul\":820:942   */\n      tag_71\n      jumpi\n        /* \"#utility.yul\":861:940   */\n      tag_72\n      tag_47\n      jump\t// in\n    tag_72:\n        /* \"#utility.yul\":820:942   */\n    tag_71:\n        /* \"#utility.yul\":974:980   */\n      dup3\n        /* \"#utility.yul\":961:981   */\n      calldataload\n        /* \"#utility.yul\":951:981   */\n      swap1\n      pop\n        /* \"#utility.yul\":1004:1022   */\n      0xffffffffffffffff\n        /* \"#utility.yul\":996:1002   */\n      dup2\n        /* \"#utility.yul\":993:1023   */\n      gt\n        /* \"#utility.yul\":990:1107   */\n      iszero\n      tag_73\n      jumpi\n        /* \"#utility.yul\":1026:1105   */\n      tag_74\n      tag_48\n      jump\t// in\n    tag_74:\n        /* \"#utility.yul\":990:1107   */\n    tag_73:\n        /* \"#utility.yul\":1140:1144   */\n      0x20\n        /* \"#utility.yul\":1132:1138   */\n      dup4\n        /* \"#utility.yul\":1128:1145   */\n      add\n        /* \"#utility.yul\":1116:1145   */\n      swap2\n      pop\n        /* \"#utility.yul\":1194:1197   */\n      dup4\n        /* \"#utility.yul\":1186:1190   */\n      0x20\n        /* \"#utility.yul\":1178:1184   */\n      dup3\n        /* \"#utility.yul\":1174:1191   */\n      mul\n        /* \"#utility.yul\":1164:1172   */\n      dup4\n        /* \"#utility.yul\":1160:1192   */\n      add\n        /* \"#utility.yul\":1157:1198   */\n      gt\n        /* \"#utility.yul\":1154:1282   */\n      iszero\n      tag_75\n      jumpi\n        /* \"#utility.yul\":1201:1280   */\n      tag_76\n      tag_49\n      jump\t// in\n    tag_76:\n        /* \"#utility.yul\":1154:1282   */\n    tag_75:\n        /* \"#utility.yul\":720:1288   */\n      swap3\n      pop\n      swap3\n      swap1\n      pop\n      jump\t// out\n        /* \"#utility.yul\":1294:1853   */\n    tag_7:\n        /* \"#utility.yul\":1380:1386   */\n      0x00\n        /* \"#utility.yul\":1388:1394   */\n      dup1\n        /* \"#utility.yul\":1437:1439   */\n      0x20\n        /* \"#utility.yul\":1425:1434   */\n      dup4\n        /* \"#utility.yul\":1416:1423   */\n      dup6\n        /* \"#utility.yul\":1412:1435   */\n      sub\n        /* \"#utility.yul\":1408:1440   */\n      slt\n        /* \"#utility.yul\":1405:1524   */\n      iszero\n      tag_78\n      jumpi\n        /* \"#utility.yul\":1443:1522   */\n      tag_79\n      tag_45\n      jump\t// in\n    tag_79:\n        /* \"#utility.yul\":1405:1524   */\n    tag_78:\n        /* \"#utility.yul\":1591:1592   */\n      0x00\n        /* \"#utility.yul\":1580:1589   */\n      dup4\n        /* \"#utility.yul\":1576:1593   */\n      add\n        /* \"#utility.yul\":1563:1594   */\n      calldataload\n        /* \"#utility.yul\":1621:1639   */\n      0xffffffffffffffff\n        /* \"#utility.yul\":1613:1619   */\n      dup2\n        /* \"#utility.yul\":1610:1640   */\n      gt\n        /* \"#utility.yul\":1607:1724   */\n      iszero\n      tag_80\n      jumpi\n        /* \"#utility.yul\":1643:1722   */\n      tag_81\n      tag_46\n      jump\t// in\n    tag_81:\n        /* \"#utility.yul\":1607:1724   */\n    tag_80:\n        /* \"#utility.yul\":1756:1836   */\n      tag_82\n        /* \"#utility.yul\":1828:1835   */\n      dup6\n        /* \"#utility.yul\":1819:1825   */\n      dup3\n        /* \"#utility.yul\":1808:1817   */\n      dup7\n        /* \"#utility.yul\":1804:1826   */\n      add\n        /* \"#utility.yul\":1756:1836   */\n      tag_50\n      jump\t// in\n    tag_82:\n        /* \"#utility.yul\":1738:1836   */\n      swap3\n      pop\n      swap3\n      pop\n        /* \"#utility.yul\":1534:1846   */\n      pop\n        /* \"#utility.yul\":1294:1853   */\n      swap3\n      pop\n      swap3\n      swap1\n      pop\n      jump\t// out\n        /* \"#utility.yul\":1859:1961   */\n    tag_51:\n        /* \"#utility.yul\":1900:1906   */\n      0x00\n        /* \"#utility.yul\":1951:1953   */\n      0x1f\n        /* \"#utility.yul\":1947:1954   */\n      not\n        /* \"#utility.yul\":1942:1944   */\n      0x1f\n        /* \"#utility.yul\":1935:1940   */\n      dup4\n        /* \"#utility.yul\":1931:1945   */\n      add\n        /* \"#utility.yul\":1927:1955   */\n      and\n        /* \"#utility.yul\":1917:1955   */\n      swap1\n      pop\n        /* \"#utility.yul\":1859:1961   */\n      swap2\n      swap1\n      pop\n      jump\t// out\n        /* \"#utility.yul\":1967:2147   */\n    tag_52:\n        /* \"#utility.yul\":2015:2092   */\n      0x4e487b7100000000000000000000000000000000000000000000000000000000\n        /* \"#utility.yul\":2012:2013   */\n      0x00\n        /* \"#utility.yul\":2005:2093   */\n      mstore\n        /* \"#utility.yul\":2112:2116   */\n      0x41\n        /* \"#utility.yul\":2109:2110   */\n      0x04\n        /* \"#utility.yul\":2102:2117   */\n      mstore\n        /* \"#utility.yul\":2136:2140   */\n      0x24\n        /* \"#utility.yul\":2133:2134   */\n      0x00\n        /* \"#utility.yul\":2126:2141   */\n      revert\n        /* \"#utility.yul\":2153:2434   */\n    tag_53:\n        /* \"#utility.yul\":2236:2263   */\n      tag_86\n        /* \"#utility.yul\":2258:2262   */\n      dup3\n        /* \"#utility.yul\":2236:2263   */\n      tag_51\n      jump\t// in\n    tag_86:\n        /* \"#utility.yul\":2228:2234   */\n      dup2\n        /* \"#utility.yul\":2224:2264   */\n      add\n        /* \"#utility.yul\":2366:2372   */\n      dup2\n        /* \"#utility.yul\":2354:2364   */\n      dup2\n        /* \"#utility.yul\":2351:2373   */\n      lt\n        /* \"#utility.yul\":2330:2348   */\n      0xffffffffffffffff\n        /* \"#utility.yul\":2318:2328   */\n      dup3\n        /* \"#utility.yul\":2315:2349   */\n      gt\n        /* \"#utility.yul\":2312:2374   */\n      or\n        /* \"#utility.yul\":2309:2397   */\n      iszero\n      tag_87\n      jumpi\n        /* \"#utility.yul\":2377:2395   */\n      tag_88\n      tag_52\n      jump\t// in\n    tag_88:\n        /* \"#utility.yul\":2309:2397   */\n    tag_87:\n        /* \"#utility.yul\":2417:2427   */\n      dup1\n        /* \"#utility.yul\":2413:2415   */\n      0x40\n        /* \"#utility.yul\":2406:2428   */\n      mstore\n        /* \"#utility.yul\":2196:2434   */\n      pop\n        /* \"#utility.yul\":2153:2434   */\n      pop\n      pop\n      jump\t// out\n        /* \"#utility.yul\":2440:2569   */\n    tag_54:\n        /* \"#utility.yul\":2474:2480   */\n      0x00\n        /* \"#utility.yul\":2501:2521   */\n      tag_90\n      tag_44\n      jump\t// in\n    tag_90:\n        /* \"#utility.yul\":2491:2521   */\n      swap1\n      pop\n        /* \"#utility.yul\":2530:2563   */\n      tag_91\n        /* \"#utility.yul\":2558:2562   */\n      dup3\n        /* \"#utility.yul\":2550:2556   */\n      dup3\n        /* \"#utility.yul\":2530:2563   */\n      tag_53\n      jump\t// in\n    tag_91:\n        /* \"#utility.yul\":2440:2569   */\n      swap2\n      swap1\n      pop\n      jump\t// out\n        /* \"#utility.yul\":2575:2886   */\n    tag_55:\n        /* \"#utility.yul\":2652:2656   */\n      0x00\n        /* \"#utility.yul\":2742:2760   */\n      0xffffffffffffffff\n        /* \"#utility.yul\":2734:2740   */\n      dup3\n        /* \"#utility.yul\":2731:2761   */\n      gt\n        /* \"#utility.yul\":2728:2784   */\n      iszero\n      tag_93\n      jumpi\n        /* \"#utility.yul\":2764:2782   */\n      tag_94\n      tag_52\n      jump\t// in\n    tag_94:\n        /* \"#utility.yul\":2728:2784   */\n    tag_93:\n        /* \"#utility.yul\":2814:2818   */\n      0x20\n        /* \"#utility.yul\":2806:2812   */\n      dup3\n        /* \"#utility.yul\":2802:2819   */\n      mul\n        /* \"#utility.yul\":2794:2819   */\n      swap1\n      pop\n        /* \"#utility.yul\":2874:2878   */\n      0x20\n        /* \"#utility.yul\":2868:2872   */\n      dup2\n        /* \"#utility.yul\":2864:2879   */\n      add\n        /* \"#utility.yul\":2856:2879   */\n      swap1\n      pop\n        /* \"#utility.yul\":2575:2886   */\n      swap2\n      swap1\n      pop\n      jump\t// out\n        /* \"#utility.yul\":2892:2969   */\n    tag_56:\n        /* \"#utility.yul\":2929:2936   */\n      0x00\n        /* \"#utility.yul\":2958:2963   */\n      dup2\n        /* \"#utility.yul\":2947:2963   */\n      swap1\n      pop\n        /* \"#utility.yul\":2892:2969   */\n      swap2\n      swap1\n      pop\n      jump\t// out\n        /* \"#utility.yul\":2975:3097   */\n    tag_57:\n        /* \"#utility.yul\":3048:3072   */\n      tag_97\n        /* \"#utility.yul\":3066:3071   */\n      dup2\n        /* \"#utility.yul\":3048:3072   */\n      tag_56\n      jump\t// in\n    tag_97:\n        /* \"#utility.yul\":3041:3046   */\n      dup2\n        /* \"#utility.yul\":3038:3073   */\n      eq\n        /* \"#utility.yul\":3028:3091   */\n      tag_98\n      jumpi\n        /* \"#utility.yul\":3087:3088   */\n      0x00\n        /* \"#utility.yul\":3084:3085   */\n      dup1\n        /* \"#utility.yul\":3077:3089   */\n      revert\n        /* \"#utility.yul\":3028:3091   */\n    tag_98:\n        /* \"#utility.yul\":2975:3097   */\n      pop\n      jump\t// out\n        /* \"#utility.yul\":3103:3242   */\n    tag_58:\n        /* \"#utility.yul\":3149:3154   */\n      0x00\n        /* \"#utility.yul\":3187:3193   */\n      dup2\n        /* \"#utility.yul\":3174:3194   */\n      calldataload\n        /* \"#utility.yul\":3165:3194   */\n      swap1\n      pop\n        /* \"#utility.yul\":3203:3236   */\n      tag_100\n        /* \"#utility.yul\":3230:3235   */\n      dup2\n        /* \"#utility.yul\":3203:3236   */\n      tag_57\n      jump\t// in\n    tag_100:\n        /* \"#utility.yul\":3103:3242   */\n      swap3\n      swap2\n      pop\n      pop\n      jump\t// out\n        /* \"#utility.yul\":3265:3975   */\n    tag_59:\n        /* \"#utility.yul\":3361:3366   */\n      0x00\n        /* \"#utility.yul\":3386:3467   */\n      tag_102\n        /* \"#utility.yul\":3402:3466   */\n      tag_103\n        /* \"#utility.yul\":3459:3465   */\n      dup5\n        /* \"#utility.yul\":3402:3466   */\n      tag_55\n      jump\t// in\n    tag_103:\n        /* \"#utility.yul\":3386:3467   */\n      tag_54\n      jump\t// in\n    tag_102:\n        /* \"#utility.yul\":3377:3467   */\n      swap1\n      pop\n        /* \"#utility.yul\":3487:3492   */\n      dup1\n        /* \"#utility.yul\":3516:3522   */\n      dup4\n        /* \"#utility.yul\":3509:3514   */\n      dup3\n        /* \"#utility.yul\":3502:3523   */\n      mstore\n        /* \"#utility.yul\":3550:3554   */\n      0x20\n        /* \"#utility.yul\":3543:3548   */\n      dup3\n        /* \"#utility.yul\":3539:3555   */\n      add\n        /* \"#utility.yul\":3532:3555   */\n      swap1\n      pop\n        /* \"#utility.yul\":3603:3607   */\n      0x20\n        /* \"#utility.yul\":3595:3601   */\n      dup5\n        /* \"#utility.yul\":3591:3608   */\n      mul\n        /* \"#utility.yul\":3583:3589   */\n      dup4\n        /* \"#utility.yul\":3579:3609   */\n      add\n        /* \"#utility.yul\":3632:3635   */\n      dup6\n        /* \"#utility.yul\":3624:3630   */\n      dup2\n        /* \"#utility.yul\":3621:3636   */\n      gt\n        /* \"#utility.yul\":3618:3740   */\n      iszero\n      tag_104\n      jumpi\n        /* \"#utility.yul\":3651:3730   */\n      tag_105\n      tag_49\n      jump\t// in\n    tag_105:\n        /* \"#utility.yul\":3618:3740   */\n    tag_104:\n        /* \"#utility.yul\":3766:3772   */\n      dup4\n        /* \"#utility.yul\":3749:3969   */\n    tag_106:\n        /* \"#utility.yul\":3783:3789   */\n      dup2\n        /* \"#utility.yul\":3778:3781   */\n      dup2\n        /* \"#utility.yul\":3775:3790   */\n      lt\n        /* \"#utility.yul\":3749:3969   */\n      iszero\n      tag_108\n      jumpi\n        /* \"#utility.yul\":3858:3861   */\n      dup1\n        /* \"#utility.yul\":3887:3924   */\n      tag_109\n        /* \"#utility.yul\":3920:3923   */\n      dup9\n        /* \"#utility.yul\":3908:3918   */\n      dup3\n        /* \"#utility.yul\":3887:3924   */\n      tag_58\n      jump\t// in\n    tag_109:\n        /* \"#utility.yul\":3882:3885   */\n      dup5\n        /* \"#utility.yul\":3875:3925   */\n      mstore\n        /* \"#utility.yul\":3954:3958   */\n      0x20\n        /* \"#utility.yul\":3949:3952   */\n      dup5\n        /* \"#utility.yul\":3945:3959   */\n      add\n        /* \"#utility.yul\":3938:3959   */\n      swap4\n      pop\n        /* \"#utility.yul\":3825:3969   */\n      pop\n        /* \"#utility.yul\":3809:3813   */\n      0x20\n        /* \"#utility.yul\":3804:3807   */\n      dup2\n        /* \"#utility.yul\":3800:3814   */\n      add\n        /* \"#utility.yul\":3793:3814   */\n      swap1\n      pop\n        /* \"#utility.yul\":3749:3969   */\n      jump(tag_106)\n    tag_108:\n        /* \"#utility.yul\":3753:3774   */\n      pop\n        /* \"#utility.yul\":3367:3975   */\n      pop\n      pop\n        /* \"#utility.yul\":3265:3975   */\n      swap4\n      swap3\n      pop\n      pop\n      pop\n      jump\t// out\n        /* \"#utility.yul\":3998:4368   */\n    tag_60:\n        /* \"#utility.yul\":4069:4074   */\n      0x00\n        /* \"#utility.yul\":4118:4121   */\n      dup3\n        /* \"#utility.yul\":4111:4115   */\n      0x1f\n        /* \"#utility.yul\":4103:4109   */\n      dup4\n        /* \"#utility.yul\":4099:4116   */\n      add\n        /* \"#utility.yul\":4095:4122   */\n      slt\n        /* \"#utility.yul\":4085:4207   */\n      tag_111\n      jumpi\n        /* \"#utility.yul\":4126:4205   */\n      tag_112\n      tag_47\n      jump\t// in\n    tag_112:\n        /* \"#utility.yul\":4085:4207   */\n    tag_111:\n        /* \"#utility.yul\":4243:4249   */\n      dup2\n        /* \"#utility.yul\":4230:4250   */\n      calldataload\n        /* \"#utility.yul\":4268:4362   */\n      tag_113\n        /* \"#utility.yul\":4358:4361   */\n      dup5\n        /* \"#utility.yul\":4350:4356   */\n      dup3\n        /* \"#utility.yul\":4343:4347   */\n      0x20\n        /* \"#utility.yul\":4335:4341   */\n      dup7\n        /* \"#utility.yul\":4331:4348   */\n      add\n        /* \"#utility.yul\":4268:4362   */\n      tag_59\n      jump\t// in\n    tag_113:\n        /* \"#utility.yul\":4259:4362   */\n      swap2\n      pop\n        /* \"#utility.yul\":4075:4368   */\n      pop\n        /* \"#utility.yul\":3998:4368   */\n      swap3\n      swap2\n      pop\n      pop\n      jump\t// out\n        /* \"#utility.yul\":4374:4913   */\n    tag_11:\n        /* \"#utility.yul\":4458:4464   */\n      0x00\n        /* \"#utility.yul\":4507:4509   */\n      0x20\n        /* \"#utility.yul\":4495:4504   */\n      dup3\n        /* \"#utility.yul\":4486:4493   */\n      dup5\n        /* \"#utility.yul\":4482:4505   */\n      sub\n        /* \"#utility.yul\":4478:4510   */\n      slt\n        /* \"#utility.yul\":4475:4594   */\n      iszero\n      tag_115\n      jumpi\n        /* \"#utility.yul\":4513:4592   */\n      tag_116\n      tag_45\n      jump\t// in\n    tag_116:\n        /* \"#utility.yul\":4475:4594   */\n    tag_115:\n        /* \"#utility.yul\":4661:4662   */\n      0x00\n        /* \"#utility.yul\":4650:4659   */\n      dup3\n        /* \"#utility.yul\":4646:4663   */\n      add\n        /* \"#utility.yul\":4633:4664   */\n      calldataload\n        /* \"#utility.yul\":4691:4709   */\n      0xffffffffffffffff\n        /* \"#utility.yul\":4683:4689   */\n      dup2\n        /* \"#utility.yul\":4680:4710   */\n      gt\n        /* \"#utility.yul\":4677:4794   */\n      iszero\n      tag_117\n      jumpi\n        /* \"#utility.yul\":4713:4792   */\n      tag_118\n      tag_46\n      jump\t// in\n    tag_118:\n        /* \"#utility.yul\":4677:4794   */\n    tag_117:\n        /* \"#utility.yul\":4818:4896   */\n      tag_119\n        /* \"#utility.yul\":4888:4895   */\n      dup5\n        /* \"#utility.yul\":4879:4885   */\n      dup3\n        /* \"#utility.yul\":4868:4877   */\n      dup6\n        /* \"#utility.yul\":4864:4886   */\n      add\n        /* \"#utility.yul\":4818:4896   */\n      tag_60\n      jump\t// in\n    tag_119:\n        /* \"#utility.yul\":4808:4896   */\n      swap2\n      pop\n        /* \"#utility.yul\":4604:4906   */\n      pop\n        /* \"#utility.yul\":4374:4913   */\n      swap3\n      swap2\n      pop\n      pop\n      jump\t// out\n        /* \"#utility.yul\":4919:5099   */\n    tag_19:\n        /* \"#utility.yul\":4967:5044   */\n      0x4e487b7100000000000000000000000000000000000000000000000000000000\n        /* \"#utility.yul\":4964:4965   */\n      0x00\n        /* \"#utility.yul\":4957:5045   */\n      mstore\n        /* \"#utility.yul\":5064:5068   */\n      0x32\n        /* \"#utility.yul\":5061:5062   */\n      0x04\n        /* \"#utility.yul\":5054:5069   */\n      mstore\n        /* \"#utility.yul\":5088:5092   */\n      0x24\n        /* \"#utility.yul\":5085:5086   */\n      0x00\n        /* \"#utility.yul\":5078:5093   */\n      revert\n        /* \"#utility.yul\":5105:5285   */\n    tag_61:\n        /* \"#utility.yul\":5153:5230   */\n      0x4e487b7100000000000000000000000000000000000000000000000000000000\n        /* \"#utility.yul\":5150:5151   */\n      0x00\n        /* \"#utility.yul\":5143:5231   */\n      mstore\n        /* \"#utility.yul\":5250:5254   */\n      0x12\n        /* \"#utility.yul\":5247:5248   */\n      0x04\n        /* \"#utility.yul\":5240:5255   */\n      mstore\n        /* \"#utility.yul\":5274:5278   */\n      0x24\n        /* \"#utility.yul\":5271:5272   */\n      0x00\n        /* \"#utility.yul\":5264:5279   */\n      revert\n        /* \"#utility.yul\":5291:5467   */\n    tag_21:\n        /* \"#utility.yul\":5323:5324   */\n      0x00\n        /* \"#utility.yul\":5340:5360   */\n      tag_123\n        /* \"#utility.yul\":5358:5359   */\n      dup3\n        /* \"#utility.yul\":5340:5360   */\n      tag_56\n      jump\t// in\n    tag_123:\n        /* \"#utility.yul\":5335:5360   */\n      swap2\n      pop\n        /* \"#utility.yul\":5374:5394   */\n      tag_124\n        /* \"#utility.yul\":5392:5393   */\n      dup4\n        /* \"#utility.yul\":5374:5394   */\n      tag_56\n      jump\t// in\n    tag_124:\n        /* \"#utility.yul\":5369:5394   */\n      swap3\n      pop\n        /* \"#utility.yul\":5413:5414   */\n      dup3\n        /* \"#utility.yul\":5403:5438   */\n      tag_125\n      jumpi\n        /* \"#utility.yul\":5418:5436   */\n      tag_126\n      tag_61\n      jump\t// in\n    tag_126:\n        /* \"#utility.yul\":5403:5438   */\n    tag_125:\n        /* \"#utility.yul\":5459:5460   */\n      dup3\n        /* \"#utility.yul\":5456:5457   */\n      dup3\n        /* \"#utility.yul\":5452:5461   */\n      mod\n        /* \"#utility.yul\":5447:5461   */\n      swap1\n      pop\n        /* \"#utility.yul\":5291:5467   */\n      swap3\n      swap2\n      pop\n      pop\n      jump\t// out\n        /* \"#utility.yul\":5473:5653   */\n    tag_62:\n        /* \"#utility.yul\":5521:5598   */\n      0x4e487b7100000000000000000000000000000000000000000000000000000000\n        /* \"#utility.yul\":5518:5519   */\n      0x00\n        /* \"#utility.yul\":5511:5599   */\n      mstore\n        /* \"#utility.yul\":5618:5622   */\n      0x11\n        /* \"#utility.yul\":5615:5616   */\n      0x04\n        /* \"#utility.yul\":5608:5623   */\n      mstore\n        /* \"#utility.yul\":5642:5646   */\n      0x24\n        /* \"#utility.yul\":5639:5640   */\n      0x00\n        /* \"#utility.yul\":5632:5647   */\n      revert\n        /* \"#utility.yul\":5659:5850   */\n    tag_27:\n        /* \"#utility.yul\":5699:5702   */\n      0x00\n        /* \"#utility.yul\":5718:5738   */\n      tag_129\n        /* \"#utility.yul\":5736:5737   */\n      dup3\n        /* \"#utility.yul\":5718:5738   */\n      tag_56\n      jump\t// in\n    tag_129:\n        /* \"#utility.yul\":5713:5738   */\n      swap2\n      pop\n        /* \"#utility.yul\":5752:5772   */\n      tag_130\n        /* \"#utility.yul\":5770:5771   */\n      dup4\n        /* \"#utility.yul\":5752:5772   */\n      tag_56\n      jump\t// in\n    tag_130:\n        /* \"#utility.yul\":5747:5772   */\n      swap3\n      pop\n        /* \"#utility.yul\":5795:5796   */\n      dup3\n        /* \"#utility.yul\":5792:5793   */\n      dup3\n        /* \"#utility.yul\":5788:5797   */\n      add\n        /* \"#utility.yul\":5781:5797   */\n      swap1\n      pop\n        /* \"#utility.yul\":5816:5819   */\n      dup1\n        /* \"#utility.yul\":5813:5814   */\n      dup3\n        /* \"#utility.yul\":5810:5820   */\n      gt\n        /* \"#utility.yul\":5807:5843   */\n      iszero\n      tag_131\n      jumpi\n        /* \"#utility.yul\":5823:5841   */\n      tag_132\n      tag_62\n      jump\t// in\n    tag_132:\n        /* \"#utility.yul\":5807:5843   */\n    tag_131:\n        /* \"#utility.yul\":5659:5850   */\n      swap3\n      swap2\n      pop\n      pop\n      jump\t// out\n\n    auxdata: 0xa2646970667358221220047c923f645dee6aa17aa95852b37ac6d7839d3fd764da8812517b914f64f2ec64736f6c634300081a0033\n}\n",
				"bytecode": {
					"linkReferences": {},
					"object": "6080604052348015600e575f80fd5b506105708061001c5f395ff3fe608060405234801561000f575f80fd5b5060043610610034575f3560e01c8063244351f2146100385780637caff4cf14610054575b5f80fd5b610052600480360381019061004d9190610243565b610070565b005b61006e60048036038101906100699190610409565b61011d565b005b5f805490505f8383905090505f5b81811015610110575f8585600181811061009b5761009a610450565b5b9050602002013590505f6002826100b291906104aa565b1480156100bf5750603281105b156100f5578585838181106100d7576100d6610450565b5b905060200201355f808282546100ed9190610507565b925050819055505b816001019150506001816101099190610507565b905061007e565b50815f8190555050505050565b5f5b81518110156101cd575f80600284848151811061013f5761013e610450565b5b602002602001015161015191906104aa565b1490505f603284848151811061016a57610169610450565b5b602002602001015110905081801561017f5750805b156101b7578360018151811061019857610197610450565b5b60200260200101515f808282546101af9190610507565b925050819055505b50506001816101c69190610507565b905061011f565b5050565b5f604051905090565b5f80fd5b5f80fd5b5f80fd5b5f80fd5b5f80fd5b5f8083601f840112610203576102026101e2565b5b8235905067ffffffffffffffff8111156102205761021f6101e6565b5b60208301915083602082028301111561023c5761023b6101ea565b5b9250929050565b5f8060208385031215610259576102586101da565b5b5f83013567ffffffffffffffff811115610276576102756101de565b5b610282858286016101ee565b92509250509250929050565b5f601f19601f8301169050919050565b7f4e487b71000000000000000000000000000000000000000000000000000000005f52604160045260245ffd5b6102d48261028e565b810181811067ffffffffffffffff821117156102f3576102f261029e565b5b80604052505050565b5f6103056101d1565b905061031182826102cb565b919050565b5f67ffffffffffffffff8211156103305761032f61029e565b5b602082029050602081019050919050565b5f819050919050565b61035381610341565b811461035d575f80fd5b50565b5f8135905061036e8161034a565b92915050565b5f61038661038184610316565b6102fc565b905080838252602082019050602084028301858111156103a9576103a86101ea565b5b835b818110156103d257806103be8882610360565b8452602084019350506020810190506103ab565b5050509392505050565b5f82601f8301126103f0576103ef6101e2565b5b8135610400848260208601610374565b91505092915050565b5f6020828403121561041e5761041d6101da565b5b5f82013567ffffffffffffffff81111561043b5761043a6101de565b5b610447848285016103dc565b91505092915050565b7f4e487b71000000000000000000000000000000000000000000000000000000005f52603260045260245ffd5b7f4e487b71000000000000000000000000000000000000000000000000000000005f52601260045260245ffd5b5f6104b482610341565b91506104bf83610341565b9250826104cf576104ce61047d565b5b828206905092915050565b7f4e487b71000000000000000000000000000000000000000000000000000000005f52601160045260245ffd5b5f61051182610341565b915061051c83610341565b9250828201905080821115610534576105336104da565b5b9291505056fea2646970667358221220047c923f645dee6aa17aa95852b37ac6d7839d3fd764da8812517b914f64f2ec64736f6c634300081a0033",
					"opcodes": "PUSH1 0x80 PUSH1 0x40 MSTORE CALLVALUE DUP1 ISZERO PUSH1 0xE JUMPI PUSH0 DUP1 REVERT JUMPDEST POP PUSH2 0x570 DUP1 PUSH2 0x1C PUSH0 CODECOPY PUSH0 RETURN INVALID PUSH1 0x80 PUSH1 0x40 MSTORE CALLVALUE DUP1 ISZERO PUSH2 0xF JUMPI PUSH0 DUP1 REVERT JUMPDEST POP PUSH1 0x4 CALLDATASIZE LT PUSH2 0x34 JUMPI PUSH0 CALLDATALOAD PUSH1 0xE0 SHR DUP1 PUSH4 0x244351F2 EQ PUSH2 0x38 JUMPI DUP1 PUSH4 0x7CAFF4CF EQ PUSH2 0x54 JUMPI JUMPDEST PUSH0 DUP1 REVERT JUMPDEST PUSH2 0x52 PUSH1 0x4 DUP1 CALLDATASIZE SUB DUP2 ADD SWAP1 PUSH2 0x4D SWAP2 SWAP1 PUSH2 0x243 JUMP JUMPDEST PUSH2 0x70 JUMP JUMPDEST STOP JUMPDEST PUSH2 0x6E PUSH1 0x4 DUP1 CALLDATASIZE SUB DUP2 ADD SWAP1 PUSH2 0x69 SWAP2 SWAP1 PUSH2 0x409 JUMP JUMPDEST PUSH2 0x11D JUMP JUMPDEST STOP JUMPDEST PUSH0 DUP1 SLOAD SWAP1 POP PUSH0 DUP4 DUP4 SWAP1 POP SWAP1 POP PUSH0 JUMPDEST DUP2 DUP2 LT ISZERO PUSH2 0x110 JUMPI PUSH0 DUP6 DUP6 PUSH1 0x1 DUP2 DUP2 LT PUSH2 0x9B JUMPI PUSH2 0x9A PUSH2 0x450 JUMP JUMPDEST JUMPDEST SWAP1 POP PUSH1 0x20 MUL ADD CALLDATALOAD SWAP1 POP PUSH0 PUSH1 0x2 DUP3 PUSH2 0xB2 SWAP2 SWAP1 PUSH2 0x4AA JUMP JUMPDEST EQ DUP1 ISZERO PUSH2 0xBF JUMPI POP PUSH1 0x32 DUP2 LT JUMPDEST ISZERO PUSH2 0xF5 JUMPI DUP6 DUP6 DUP4 DUP2 DUP2 LT PUSH2 0xD7 JUMPI PUSH2 0xD6 PUSH2 0x450 JUMP JUMPDEST JUMPDEST SWAP1 POP PUSH1 0x20 MUL ADD CALLDATALOAD PUSH0 DUP1 DUP3 DUP3 SLOAD PUSH2 0xED SWAP2 SWAP1 PUSH2 0x507 JUMP JUMPDEST SWAP3 POP POP DUP2 SWAP1 SSTORE POP JUMPDEST DUP2 PUSH1 0x1 ADD SWAP2 POP POP PUSH1 0x1 DUP2 PUSH2 0x109 SWAP2 SWAP1 PUSH2 0x507 JUMP JUMPDEST SWAP1 POP PUSH2 0x7E JUMP JUMPDEST POP DUP2 PUSH0 DUP2 SWAP1 SSTORE POP POP POP POP POP JUMP JUMPDEST PUSH0 JUMPDEST DUP2 MLOAD DUP2 LT ISZERO PUSH2 0x1CD JUMPI PUSH0 DUP1 PUSH1 0x2 DUP5 DUP5 DUP2 MLOAD DUP2 LT PUSH2 0x13F JUMPI PUSH2 0x13E PUSH2 0x450 JUMP JUMPDEST JUMPDEST PUSH1 0x20 MUL PUSH1 0x20 ADD ADD MLOAD PUSH2 0x151 SWAP2 SWAP1 PUSH2 0x4AA JUMP JUMPDEST EQ SWAP1 POP PUSH0 PUSH1 0x32 DUP5 DUP5 DUP2 MLOAD DUP2 LT PUSH2 0x16A JUMPI PUSH2 0x169 PUSH2 0x450 JUMP JUMPDEST JUMPDEST PUSH1 0x20 MUL PUSH1 0x20 ADD ADD MLOAD LT SWAP1 POP DUP2 DUP1 ISZERO PUSH2 0x17F JUMPI POP DUP1 JUMPDEST ISZERO PUSH2 0x1B7 JUMPI DUP4 PUSH1 0x1 DUP2 MLOAD DUP2 LT PUSH2 0x198 JUMPI PUSH2 0x197 PUSH2 0x450 JUMP JUMPDEST JUMPDEST PUSH1 0x20 MUL PUSH1 0x20 ADD ADD MLOAD PUSH0 DUP1 DUP3 DUP3 SLOAD PUSH2 0x1AF SWAP2 SWAP1 PUSH2 0x507 JUMP JUMPDEST SWAP3 POP POP DUP2 SWAP1 SSTORE POP JUMPDEST POP POP PUSH1 0x1 DUP2 PUSH2 0x1C6 SWAP2 SWAP1 PUSH2 0x507 JUMP JUMPDEST SWAP1 POP PUSH2 0x11F JUMP JUMPDEST POP POP JUMP JUMPDEST PUSH0 PUSH1 0x40 MLOAD SWAP1 POP SWAP1 JUMP JUMPDEST PUSH0 DUP1 REVERT JUMPDEST PUSH0 DUP1 REVERT JUMPDEST PUSH0 DUP1 REVERT JUMPDEST PUSH0 DUP1 REVERT JUMPDEST PUSH0 DUP1 REVERT JUMPDEST PUSH0 DUP1 DUP4 PUSH1 0x1F DUP5 ADD SLT PUSH2 0x203 JUMPI PUSH2 0x202 PUSH2 0x1E2 JUMP JUMPDEST JUMPDEST DUP3 CALLDATALOAD SWAP1 POP PUSH8 0xFFFFFFFFFFFFFFFF DUP2 GT ISZERO PUSH2 0x220 JUMPI PUSH2 0x21F PUSH2 0x1E6 JUMP JUMPDEST JUMPDEST PUSH1 0x20 DUP4 ADD SWAP2 POP DUP4 PUSH1 0x20 DUP3 MUL DUP4 ADD GT ISZERO PUSH2 0x23C JUMPI PUSH2 0x23B PUSH2 0x1EA JUMP JUMPDEST JUMPDEST SWAP3 POP SWAP3 SWAP1 POP JUMP JUMPDEST PUSH0 DUP1 PUSH1 0x20 DUP4 DUP6 SUB SLT ISZERO PUSH2 0x259 JUMPI PUSH2 0x258 PUSH2 0x1DA JUMP JUMPDEST JUMPDEST PUSH0 DUP4 ADD CALLDATALOAD PUSH8 0xFFFFFFFFFFFFFFFF DUP2 GT ISZERO PUSH2 0x276 JUMPI PUSH2 0x275 PUSH2 0x1DE JUMP JUMPDEST JUMPDEST PUSH2 0x282 DUP6 DUP3 DUP7 ADD PUSH2 0x1EE JUMP JUMPDEST SWAP3 POP SWAP3 POP POP SWAP3 POP SWAP3 SWAP1 POP JUMP JUMPDEST PUSH0 PUSH1 0x1F NOT PUSH1 0x1F DUP4 ADD AND SWAP1 POP SWAP2 SWAP1 POP JUMP JUMPDEST PUSH32 0x4E487B7100000000000000000000000000000000000000000000000000000000 PUSH0 MSTORE PUSH1 0x41 PUSH1 0x4 MSTORE PUSH1 0x24 PUSH0 REVERT JUMPDEST PUSH2 0x2D4 DUP3 PUSH2 0x28E JUMP JUMPDEST DUP2 ADD DUP2 DUP2 LT PUSH8 0xFFFFFFFFFFFFFFFF DUP3 GT OR ISZERO PUSH2 0x2F3 JUMPI PUSH2 0x2F2 PUSH2 0x29E JUMP JUMPDEST JUMPDEST DUP1 PUSH1 0x40 MSTORE POP POP POP JUMP JUMPDEST PUSH0 PUSH2 0x305 PUSH2 0x1D1 JUMP JUMPDEST SWAP1 POP PUSH2 0x311 DUP3 DUP3 PUSH2 0x2CB JUMP JUMPDEST SWAP2 SWAP1 POP JUMP JUMPDEST PUSH0 PUSH8 0xFFFFFFFFFFFFFFFF DUP3 GT ISZERO PUSH2 0x330 JUMPI PUSH2 0x32F PUSH2 0x29E JUMP JUMPDEST JUMPDEST PUSH1 0x20 DUP3 MUL SWAP1 POP PUSH1 0x20 DUP2 ADD SWAP1 POP SWAP2 SWAP1 POP JUMP JUMPDEST PUSH0 DUP2 SWAP1 POP SWAP2 SWAP1 POP JUMP JUMPDEST PUSH2 0x353 DUP2 PUSH2 0x341 JUMP JUMPDEST DUP2 EQ PUSH2 0x35D JUMPI PUSH0 DUP1 REVERT JUMPDEST POP JUMP JUMPDEST PUSH0 DUP2 CALLDATALOAD SWAP1 POP PUSH2 0x36E DUP2 PUSH2 0x34A JUMP JUMPDEST SWAP3 SWAP2 POP POP JUMP JUMPDEST PUSH0 PUSH2 0x386 PUSH2 0x381 DUP5 PUSH2 0x316 JUMP JUMPDEST PUSH2 0x2FC JUMP JUMPDEST SWAP1 POP DUP1 DUP4 DUP3 MSTORE PUSH1 0x20 DUP3 ADD SWAP1 POP PUSH1 0x20 DUP5 MUL DUP4 ADD DUP6 DUP2 GT ISZERO PUSH2 0x3A9 JUMPI PUSH2 0x3A8 PUSH2 0x1EA JUMP JUMPDEST JUMPDEST DUP4 JUMPDEST DUP2 DUP2 LT ISZERO PUSH2 0x3D2 JUMPI DUP1 PUSH2 0x3BE DUP9 DUP3 PUSH2 0x360 JUMP JUMPDEST DUP5 MSTORE PUSH1 0x20 DUP5 ADD SWAP4 POP POP PUSH1 0x20 DUP2 ADD SWAP1 POP PUSH2 0x3AB JUMP JUMPDEST POP POP POP SWAP4 SWAP3 POP POP POP JUMP JUMPDEST PUSH0 DUP3 PUSH1 0x1F DUP4 ADD SLT PUSH2 0x3F0 JUMPI PUSH2 0x3EF PUSH2 0x1E2 JUMP JUMPDEST JUMPDEST DUP2 CALLDATALOAD PUSH2 0x400 DUP5 DUP3 PUSH1 0x20 DUP7 ADD PUSH2 0x374 JUMP JUMPDEST SWAP2 POP POP SWAP3 SWAP2 POP POP JUMP JUMPDEST PUSH0 PUSH1 0x20 DUP3 DUP5 SUB SLT ISZERO PUSH2 0x41E JUMPI PUSH2 0x41D PUSH2 0x1DA JUMP JUMPDEST JUMPDEST PUSH0 DUP3 ADD CALLDATALOAD PUSH8 0xFFFFFFFFFFFFFFFF DUP2 GT ISZERO PUSH2 0x43B JUMPI PUSH2 0x43A PUSH2 0x1DE JUMP JUMPDEST JUMPDEST PUSH2 0x447 DUP5 DUP3 DUP6 ADD PUSH2 0x3DC JUMP JUMPDEST SWAP2 POP POP SWAP3 SWAP2 POP POP JUMP JUMPDEST PUSH32 0x4E487B7100000000000000000000000000000000000000000000000000000000 PUSH0 MSTORE PUSH1 0x32 PUSH1 0x4 MSTORE PUSH1 0x24 PUSH0 REVERT JUMPDEST PUSH32 0x4E487B7100000000000000000000000000000000000000000000000000000000 PUSH0 MSTORE PUSH1 0x12 PUSH1 0x4 MSTORE PUSH1 0x24 PUSH0 REVERT JUMPDEST PUSH0 PUSH2 0x4B4 DUP3 PUSH2 0x341 JUMP JUMPDEST SWAP2 POP PUSH2 0x4BF DUP4 PUSH2 0x341 JUMP JUMPDEST SWAP3 POP DUP3 PUSH2 0x4CF JUMPI PUSH2 0x4CE PUSH2 0x47D JUMP JUMPDEST JUMPDEST DUP3 DUP3 MOD SWAP1 POP SWAP3 SWAP2 POP POP JUMP JUMPDEST PUSH32 0x4E487B7100000000000000000000000000000000000000000000000000000000 PUSH0 MSTORE PUSH1 0x11 PUSH1 0x4 MSTORE PUSH1 0x24 PUSH0 REVERT JUMPDEST PUSH0 PUSH2 0x511 DUP3 PUSH2 0x341 JUMP JUMPDEST SWAP2 POP PUSH2 0x51C DUP4 PUSH2 0x341 JUMP JUMPDEST SWAP3 POP DUP3 DUP3 ADD SWAP1 POP DUP1 DUP3 GT ISZERO PUSH2 0x534 JUMPI PUSH2 0x533 PUSH2 0x4DA JUMP JUMPDEST JUMPDEST SWAP3 SWAP2 POP POP JUMP INVALID LOG2 PUSH5 0x6970667358 0x22 SLT KECCAK256 DIV PUSH29 0x923F645DEE6AA17AA95852B37AC6D7839D3FD764DA8812517B914F64F2 0xEC PUSH5 0x736F6C6343 STOP ADDMOD BYTE STOP CALLER "
				},
				"gasEstimates": {
					"creation": {
						"codeDepositCost": "278400",
						"executionCost": "316",
						"totalCost": "278716"
					},
					"external": {
						"addIfIsEvenAndLessThan50(uint256[])": "infinite",
						"addIfIsEvenAndLessThan50Optmized(uint256[])": "infinite"
					}
				},
				"methodIdentifiers": {
					"addIfIsEvenAndLessThan50(uint256[])": "7caff4cf",
					"addIfIsEvenAndLessThan50Optmized(uint256[])": "244351f2"
				}
			},
			"storageLayout": {
				"storage": [
					{
						"astId": 3,
						"contract": "contracts/GasGolf.sol:gasGolf",
						"label": "total",
						"offset": 0,
						"slot": "0",
						"type": "t_uint256"
					}
				],
				"types": {
					"t_uint256": {
						"encoding": "inplace",
						"label": "uint256",
						"numberOfBytes": "32"
					}
				}
			},
			"userdoc": {
				"kind": "user",
				"methods": {},
				"version": 1
			}
		}
	}
}